:020000040C00EE
:1000000000D0FE1F010200089902000899020008B2
:1000100099020008990200089902000800000000F7
:10002000000000000000000000000000990200082D
:1000300099020008000000009902000899020008D7
:100040009902000899020008990200089902000824
:100050009902000899020008990200089902000814
:1000600099020008000000000000000000000000ED
:100070009902000800000000990200089902000897
:1000800099020008990200089902000899020008E4
:1000900099020008990200089902000899020008D4
:1000A00099020008990200089902000899020008C4
:1000B00099020008990200089902000899020008B4
:1000C00099020008990200089902000899020008A4
:1000D0009902000899020008990200089902000894
:1000E0009902000899020008990200089902000884
:1000F0009902000899020008990200089902000874
:1001000099020008994E0008990200089902000817
:100110009902000899020008990200089902000853
:1001200099020008314E000899020008990200085F
:1001300099020008990200089902000825BF0008EA
:100140009902000899020008990200089902000823
:100150009902000899020008990200089902000813
:10016000000000000000000000000000000000008F
:1001700099020008990200089902000899020008F3
:1001800099020008990200089902000899020008E3
:1001900099020008D943000899020008E5430008C5
:1001A00055350008613500089902000899020008D9
:1001B00099020008990200089902000899020008B3
:1001C00099020008990200089902000899020008A3
:1001D0009902000899020008990200080000000036
:1001E000990200089902000899020008E13200080B
:1001F0009902000899020008990200080000000016
:10020000DFF874D01D4880471D4C1E4DAC4209DA02
:1002100021686268A368043BA2BFC858D050FAE7BF
:100220000C34F3E7184B194CA34208DA19685A68E2
:100230000020043AA4BF8850FBE70833F4E71448D1
:10024000804714488047000000CE000C00D0FE1FFD
:100250006C07000000CE000C00D0FE1F0000000064
:100260006CD7FE1F1840000000000020000E0000A8
:10027000000E00200000000000D0FE1F69230008CF
:1002800048020008600200086002000878020008C6
:1002900029C5000849BF0008FEE70000014BF52210
:1002A0001A6070475455000C024A41F21003D058AE
:1002B000704700BF001000580A4B0B490B4AF0B5BD
:1002C000AA2555244FF0F50E80273026C3F800E00C
:1002D0001D600C601F601D600C6006601368DB070A
:1002E000FCD4F0BD5455000CA8AA000C10200058F6
:1002F00001F0FC030344F0B501F003051E691D4F36
:10030000ED00F824AC4026EA04041C61466F4FEA75
:10031000410E032404FA0EF426EA0404B8424467AA
:100320001FD0154CA0421CD01478260614D557684F
:10033000167ACA0800EB82028F40476001F007017D
:10034000176C89000720884027EA00001064106CB1
:1003500006FA01F1014311641A69AC4014431C61AF
:10036000F0BD066E1478012707FA01F226EA0202B0
:100370000266F1E7008E0248008F0248030F03EB8C
:100380004303034A20F0704042F82300704700BF47
:1003900010440050030F03EB4303034A20F0704066
:1003A00042F82300704700BF14440050034B044A36
:1003B0005B69106803F00103D840704700460050A5
:1003C000C0FF0320034A936923F4803318439061EC
:1003D000704700BF00460050034A536A23F440337D
:1003E00018435062704700BF00460050054AD2F8DB
:1003F000C4301B07FBD4044AD36823F040031843DE
:10040000D06070470040005000430050034A936999
:10041000013823F0070303439361704700460050FF
:10042000034AD369013823F03F030343D361704784
:1004300000460050034A536A013823F0FF03034388
:100440005362704700460050034A936B013823F013
:10045000030303439363704700460050014B586009
:10046000704700BF00460050030F03EB4303034AED
:1004700020F0704042F82300704700BF444600500F
:10048000030F03EB4303034A20F0704042F82300BC
:10049000704700BF484600500F4B5A6942F00102B6
:1004A0005A615A6901380006013942F0100240EAE7
:1004B00001205A6158615A6942F040025A615A69F2
:1004C00022F010025A615A6942F480225A611A6974
:1004D0005207FCD5704700BF10470050024B4FF445
:1004E00040325A60704700BF00420050024B4FF448
:1004F00040329A60704700BF00420050F0B583B0B0
:10050000644C089EC0B1E06840F4807040F0010087
:100510000129E06000F086805E4A9368013E23F086
:100520007F031E439660536843F0010353601368D2
:10053000DB07FCD503B0F0BDE06820F4807020F04C
:1005400001000129E060E7D18DE80C0004F0D8F843
:10055000514DA5FB00359DE80C00AD0CAD054D4996
:100560004E4C4F684E4847F001074F604F6847F0C8
:1005700010074F60D1F808E003FB05F5571EB5FBE7
:10058000F2F50EEA0000A4FB054240EA07605C1E9B
:10059000930E40EA0420013B40EA03438B604B6822
:1005A00043F040034B604B6823F010034B604B68F3
:1005B00043F480234B600868364B4207FBD55A68EA
:1005C00022F001025A6019460B68324A13F0010406
:1005D000FAD1344BA3FB0513DB0E9E423FD3324FBF
:1005E000324B6D08A3FB0523DB0E9E421DD3294A27
:1005F0009368013E23F4FE0343EA0646966001F049
:1006000071FE3B68244AA2FB0332920C322303FBA7
:1006100002F20023002A8DD000BF01339342FBD1A8
:1006200003B0F0BD4FF0C06599E71A498A68013BF5
:1006300022F4FE0242EA03438B6001F053FE3B6862
:10064000154AA2FB0332920C322303FB02F2002A6A
:10065000CDD0002300BF01339342FBD1C7E791689F
:10066000114F21F4FE01013B41EA0343936001F085
:1006700039FE3B68084AA2FB0332920C322303FB8B
:1006800002F2002AACD0234600BF01339342FBD1D3
:10069000A6E700BF1047005083DE1B43ABAAAAAAFF
:1006A000FF8080F089888888C0FF0320B7600BB680
:1006B0007849794ACB68F0B523F48033CB6013686E
:1006C0000546D80783B004D4012353601368DB07C1
:1006D000FCD5724A1368990505D54FF400739360F1
:1006E00013689F05FCD4EB79002B40F09180687A69
:1006F0006B4AD2F8C4301B07FBD46A49684BCA68FE
:1007000022F080020243CA60D3F8C440002CFBD11F
:10071000654A297A5368012943F48013536000F035
:100720009F80624E01F0DEFD3368614AA2FB033216
:10073000920C642303FB02F222B1002300BF0133B9
:100740009342FBD1534B2C7CDA68A87922F0FF014D
:10075000621E0A43DA601A696C7C22F00101621E93
:100760000A431A611A6AAC7C22F00101621E0A4334
:100770001A625A69EC7C22F00101621E0A435A6136
:1007800028BBE978A1B9484A536843F4803343F061
:1007900002035360EB68B3F5803F04D13D4AD36850
:1007A00043F48033D36003B0BDE8F04001F09ABD5C
:1007B0003D4AA888536823F4803323F00203536032
:1007C000AC786A782B780094FFF798FEE2E7364C15
:1007D000384F636823F4803363607E6803F090FFD2
:1007E000354AA2FB0032120D26F47023013A23F0A1
:1007F000300343EA02437B60636823F400336360A1
:100800002246136803F46073B3F5607FF9D1B8E74B
:100810002A49244A4FF40003CB60D36923F0300304
:10082000D3614A68254B1602FBD51E494FF40032AE
:100830000820DA601A4648605168204B8C03FBD5CB
:100840004FF400221749DA60CA6842F00802CA6011
:100850005A681003FCD5134A13681907FCD446E7FD
:100860005368124E23F48013536001F03BFD104A8D
:100870003368A2FB03239A0C642303FB02F31BB12E
:1008800000BF01349C42FBD1074A536843F4002364
:10089000536047E7004600500042005000440050BB
:1008A000004000500043005010470050C0FF03209C
:1008B00083DE1B43004700506BCA5F6B74400050DF
:1008C00038B5044610200D46FFF7C8FD194B9C4271
:1008D0001AD0194B9C421ED0184B9C4222D0184B68
:1008E0009C420AD0E36843F48073E360216821F4FA
:1008F000404141EA8531216038BD1248FFF7C0FD13
:100900001048FFF747FDEDE70420FFF7B9FD04208D
:10091000FFF740FDE6E70820FFF7B2FD0820FFF7EC
:1009200039FDDFE71020FFF7ABFD1020FFF732FDA8
:10093000D8E700BF00C00040000001400040014077
:10094000004000480100001070B44B790E7909682E
:1009500041611C461D463246C3F3401306F00F06A4
:1009600005F00F05C4F300111B0512094360466230
:100970000562816170BCC262704700BF836A23F464
:10098000706343EA0123836241627047092930B4EE
:10099000D0F8A8400DD8094B094D53F8213055F82F
:1009A0002110DB4323408A401A43C0F8A82030BC02
:1009B00070470C216FF44053F4E700BF64C7000890
:1009C0003CC7000838B5044610200D46FFF746FD29
:1009D000104B9C4216D0104B9C420AD0E36843F463
:1009E0008073E360236823F4404343EA8531216048
:1009F00038BD4FF48070FFF743FD4FF48070FFF770
:100A0000C9FCEBE78020FFF73BFD8020FFF7C2FC2D
:100A1000E4E700BF00000240004002404B7B70B49E
:100A20000D7B012606612C461A46C3F300130E689F
:100A300046611B0505F00F05240902F00F02436013
:100A40004562C46202624B6883618B6883F0140361
:100A5000836470BC704700BF41637047836A23F4AE
:100A6000706343EA012383624162704709B14264C3
:100A70007047C263704700BF092930B4D0F8A8405E
:100A80000DD8094B094D53F8213055F82110DB439F
:100A900023408A401A43C0F8A82030BC70470C217C
:100AA0006FF44053F4E700BF8CC70008B4C70008D8
:100AB000034600201A6859689B68916093617047EB
:100AC00010B5064C2046FFF7DBFC2046FFF762FC22
:100AD000034A136823F00103136010BD4000002097
:100AE000000002500AB90220704712F0030FFAD139
:100AF00010B4046851F8040B2060043AFAD1A169DB
:100B0000196010465DF8044B704700BF01F0FC030C
:100B1000184401F0030110B4C9000469F8238B40A4
:100B200024EA0303036103695DF8044B8A4013431D
:100B30000361704710B44900446F03238B4024EADB
:100B400003034367436F5DF8044B8A4013434367D5
:100B5000704700BF38B50D46044601F0D7FAAB88A0
:100B6000184A626303F4F842B2F5F04F23D01B0237
:100B7000E3632968144B994214D9144B994208D95C
:100B80004FF4A0614FF0FF320023A163E2642364BD
:100B900038BDE36B43F40033E3632046192201F0D0
:100BA000F7FAEDE7E36B23F40033E36320460A2210
:100BB00001F0EEFAE4E75A0002F47E42DBB213439E
:100BC000E363D6E703033F07A0860100801A06000F
:100BD00010B50F4CA1420FD90E4CA14201D90120F2
:100BE00010BDC36B43F40033C363192201F0D0FA84
:100BF000003018BF012010BDC36B23F40033C36362
:100C00000A2201F0C5FA003018BF012010BD00BF54
:100C1000A0860100801A0600D0F80831012A41F4AC
:100C2000806108BF41F0010113F0E06F02D0C0F80D
:100C300080117047836B1B06FCD4C36C43F40053D4
:100C4000C364C0F880107047D0F80831012A41F41D
:100C5000A06108BF41F0010113F0E06F02D0C0F8BD
:100C600080117047836B1B06FCD4C36C43F40053A4
:100C7000C364C0F880107047D0F8083113F0E06FFB
:100C800004D04FF4C063C0F880317047836B1B06FB
:100C9000FCD4C36C4FF4C06243F40053C364C0F887
:100CA00080207047D0F8083113F0E06F02D0C0F810
:100CB00080117047836B1B06FCD4C36C43F4005354
:100CC000C364C0F880107047D0F8083113F0E06FAB
:100CD00004D04FF40073C0F880317047836B1B065B
:100CE000FCD4C36C4FF4007243F40053C364C0F8E7
:100CF00080207047D0F8083113F0E06F04D04FF433
:100D00004073C0F880317047836B1B06FCD4C36C02
:100D10004FF4407243F40053C364C0F8802070471E
:100D2000D0F80C3113F0E06F0CBF406DD0F81C010F
:100D3000C0B27047036C064A10B401F4FE3423437A
:100D40000364C36B5DF8044B0A401343C3637047ED
:100D50000000FC41036C074A10B401F4FE3423EA9E
:100D600004030364C36B5DF8044B0A4023EA0203E7
:100D7000C36370470000FC4170B50D46044601F0A6
:100D8000C5F9EA7932B35608013636022046296899
:100D900001F0FEF9AB79013B5B0043F4403343F0D3
:100DA00001033343E3632B79013B1B0643F4817357
:100DB00063636B7903B92B79626B013B42EA0343AE
:100DC00063634FF4A0612B89A1634FF0FF32E264AB
:100DD000236470BD4FF410661022D7E7D0F80831B5
:100DE00013F0E06F02D0C0F880117047836B1B06D0
:100DF000FCD44FF40053C364C0F88010704700BFA8
:100E0000D0F80C3113F0E06F0CBF406DD0F81C012E
:100E100080B2704700206FF300006FF3410040F094
:100E20001C006FF3451040F4E070C0F308007047F9
:100E3000044BD3F8A42153686FF34103536000209F
:100E4000704700BFEC10FF1F044BD3F8A421536878
:100E500043F0020353600020704700BFEC10FF1FF7
:100E6000444A017B70B492F8FE41002004F0010472
:100E700000297CD053681E0756BF53680123C3F373
:100E80000013012954D9956B3A4E2D0761D4B56BE7
:100E900015F0100F18BF0123022949D0D56E354E29
:100EA0002D0762D4F56E15F0100F18BF012303292A
:100EB0003ED0D2F8A0502F4E2D0754D4D6F8A050D3
:100EC00015F0100F18BF0123042931D0D2F8D450E7
:100ED000284E2D0745D4D6F8D45015F0100F18BF62
:100EE0000123052924D0D2F80851224E2D0736D4EB
:100EF000D6F8085115F0100F18BF0123062917D096
:100F0000D2F83C511B4E2D0727D4D6F83C5115F092
:100F1000100F18BF012307290AD0D2F87011154D00
:100F2000090718D4D5F8701111F0100F18BF01235C
:100F300003F0010392F8FE21C2F3800262F3000085
:100F400064F3410063F38200012363F3C40070BCC7
:100F500070470123A0E70123EAE70123DBE7012330
:100F6000CCE70123BDE70123AEE701239FE703465A
:100F7000E0E700BFEC10FF1F044BD3F8A4311A6860
:100F800011B960F30A121A6000207047EC10FF1FBD
:100F900000F00F02E9B1342310F0800F03FB02F3DD
:100FA0001D48C35C03F00F030BBF00EB83036A33E0
:100FB000D3F8C41150F823100B6843F400130B60EE
:100FC000342303FB02020020137943F02003137142
:100FD000704710B4342310F0800F03FB02F30E4867
:100FE000C35C03F00F030BBF00EB83036A33D3F83A
:100FF000C44150F82340236861F3555343F08053B4
:101000002360342303FB02025DF8044B13796FF372
:101010004513002013717047EC10FF1F00F00F0004
:10102000342202FB00F20D4B995C1A4411F0800F40
:1010300051680CBF21F0100121F0080151603422E9
:1010400002FB003300201A79D8626FF345121A713F
:101050001861986198621863704700BFEC10FF1F19
:10106000F0B53D4B00F00F00342101FB00F15A18A0
:1010700013F801E01479D3F8A47114F0040F0EF002
:101080000F06FD694FF000015AD004F0FB046FF326
:1010900045141471546824F010045460546861F3CA
:1010A000CF3141F0904124F008044FF0010C1EF0C4
:1010B000800F6FF3555154600CFA06FC2FD006F1E7
:1010C0006A0E6FEA0C0453F82EE0CEF80010127985
:1010D0001FFA84FE0EEA050C92076CF30F050DD182
:1010E0001E4A126803EB8606527BD6F8C4610EEAEC
:1010F000154E012A31606EF31F4528D0342202FBC1
:101100000030FD618088B3F8FC11C0F38310012228
:10111000824021EA0202A3F8FC210020F0BD1279EE
:1011200094070FD106F16A026FEA0C041FFA84FEDD
:1011300053F822200EEA050C6CF30F051160CFE77F
:101140000120F0BD6FEA0C041FFA84FEC8E77A6B39
:1011500014407C63D2E700BFEC10FF1FE810FF1FB4
:10116000034BD3F8A4319868C0F30D20704700BF3B
:10117000EC10FF1F054B93F8FE0100F00500A0F1F5
:101180000500B0FA80F04009704700BFEC10FF1F67
:101190000748D0F8A42108B5536843F00203536010
:1011A00000214FF402720BF008FA002008BD00BFC6
:1011B000EC10FF1F2DE9F04F9A4DDFF86C82D5F847
:1011C000A431DFF868A2D3F81CE0DFF8649200F0E5
:1011D0000F0C342707FB0CF7EE1906F10803002467
:1011E000EC51746043F8044B43F8044B43F8044B50
:1011F00043F8044B43F8044B43F8044B43F8044BC7
:1012000043F8044B43F8044B43F8044B1C60337918
:10121000E85543F0040333717468334662F3D12414
:1012200043F8044F00285C684FF6C07008BF4020A8
:1012300060F312045C60EB5D03F00F03180208F525
:10124000E06B08EB000400EB0B085AF82300306257
:1012500059F823007061F461C6F80C80E85D00065F
:101260001FD400297FD005EB83040120D4F8C4618A
:101270003468984044F4004461F3934480B262F3CC
:101280000A0444F080546FF3555440EA1E40346021
:1012900060F31F4ED5F8A4310020C3F81CE0BDE870
:1012A000F08F03F16A0055F82060346844F400447C
:1012B00061F3934400295FD062F30A04B5F8FC019E
:1012C00044F0805410F001076FF3555400F08E8005
:1012D000870740F18E80470740F18F80070740F174
:1012E0009080C70640F19180870640F192804706C2
:1012F00040F19380070649D407274FF0800848EA59
:101300000000A5F8FC01342000FB0CFC05EB0C09E7
:1013100067F39954B9F804A0DFF8088167F3891AD4
:10132000A9F804A001203460984015F80C4080B260
:1013300040EA0E06240666F30F0E29D50029A9D12E
:1013400008EB8303D3F8C461346844F4004461F3C8
:101350009344102A3CD034D9202A2ED0402A90D150
:101360006FF30A048DE703F16A0055F820603468D2
:1013700044F4004461F39344102A31D015D9202A53
:101380002AD0402A9AD16FF30A0497E70027BAE7D8
:1013900008EB8303D3F8C461346844F4004461F378
:1013A000934400297FF46BAFD3E7082A86D1032743
:1013B00055F8206067F30A0480E7012363F30A0409
:1013C0005FE7082A7FF45DAF032363F30A0458E75D
:1013D000022363F30A0454E7012060F30A046DE773
:1013E000022755F8206067F30A0467E74FF0010809
:1013F00085E701274FF0020881E702274FF0040834
:101400007DE703274FF0080879E704274FF010081D
:1014100075E705274FF0200871E706274FF04008D1
:101420006DE700BFEC10FF1F0000002088D7FE1FF3
:101430006CD7FE1FF8B50E4F342404FB007406462B
:101440002569A36995420846E16828BF15461944F5
:101450002A460BF0A7F823695B1B23610BB1A36934
:101460002B44342202FB06762846B361F8BD00BF48
:10147000EC10FF1F2DE9F04F074683B069486A4C16
:101480006A4E6B4DFEF7FCFF6648FEF783FFFFF7E1
:1014900025F8684B00211F604FF40272402320465C
:1014A00033607360B360F36033617361B3612B6069
:1014B0006B60AB60EB602B616B61AB610BF07DF837
:1014C0003B687D7B9A687868BE68B5FA85F103F55C
:1014D000006A490903F5106942F08102C4F800026C
:1014E000C4F80462C4F8A4A1C4F8A89161F3451239
:1014F00003F5126803F5146C03F5166E03F518670F
:1015000003F51A6003F51C6B03F5306103F53266D1
:1015100003F5346A03F53669C4F8AC81C4F8B0C188
:10152000C4F8B4E1C4F8B871C4F8BC01C4F8C0B1DF
:10153000C4F8C411C4F8C861C4F8CCA1C4F8D091EF
:1015400003F5804103F5386803F53A6C03F53C6E0A
:1015500003F5805703F5005003F5405B03F5A04603
:1015600003F5C04A03F5E049C4F8EC11C4F8A03112
:10157000C4F8D481C4F8D8C1C4F8DCE1C4F8E0717F
:10158000C4F8E401C4F8E8B1C4F8F061C4F8F4A107
:10159000C4F8F8919A60D96841F0804141F48071B3
:1015A000D960D3F8002842F003026FF3D752C3F892
:1015B0000028D3F80428002142F00202C3F80428CE
:1015C0000091009A42F020020092009921F4F86103
:1015D00041F480610091009A1A611A690092009AA0
:1015E000C2F34012002AF8D10192019A42F010028F
:1015F0000192019A1A611A6901920198C0F30010D0
:101600000028F8D10C490D4A9861012D18BF0A46EF
:1016100042F440224FF0FF3159619A6103B0BDE8B6
:10162000F08F00BF80000020EC10FF1F6CD7FE1F62
:1016300088D7FE1FE810FF1F0E3C00C01E3C00C0F4
:10164000F0B400F00F003424334E04FB00F43219E0
:1016500082B05368C3F30013002B36D115796D07A0
:1016600033D5956801955569D768D362A94228BFDB
:101670002946019D1361C5F312058D4228BF0D4611
:10168000116395625762345D240722D0002D37D153
:10169000012262F3DC43214A1268527B2ABB3422C6
:1016A00002FB00F03118325C496A02F00F0206EBCF
:1016B0008202D2F8C421516113611368002043F003
:1016C0000443136002B0F0BC7047012002B0F0BCCC
:1016D0007047012262F3D443104A1268527B43F0F0
:1016E000C04361F30603002AD9D0342202FB00F084
:1016F000325C02F00F0206EB8202D2F8C421DBE773
:101700005268C2F3C6214A1E2A44B2FBF1F262F3C8
:10171000DC4365F31203BEE7EC10FF1FE810FF1F68
:101720002DE9F84300F00F073426394D06FB07F684
:10173000AC1923795B0753D56368180757D4236A1C
:10174000E0699A4228BF1A4691460AF02BFF636867
:10175000D4F81CC0C4F824C043F00803002163601F
:10176000E162C4F83090A85DA36800F00F0000F1BA
:101770006A0EC3F3120255F82E804A4528BF4A4626
:10178000D8F800E0A262AAB3AB5D1B072BD0636858
:10179000C3F3C624631E9BB213FA82F3C2F3120290
:1017A00093FBF4F3C3F309031A4C2468647B62F3DC
:1017B000120163F3DC410CBBC8F814C0342303FBF3
:1017C00007F7EA19EB5D106B03F00F036A334EF075
:1017D000044E55F823301961C3F800E0BDE8F883E2
:1017E0000120BDE8F883C2F312020123DCE70020E8
:1017F000BDE8F883012363F3DC41DFE7012CDDD191
:10180000D5F8A421536B84401C435463D6E700BF32
:10181000EC10FF1FE810FF1F2DE9F04FB94CD4F872
:10182000A0319D695A698FB002EA050A5FFA8AF60B
:101830000190300700F1EB82019A527B012A00F0FF
:10184000F382CAF30725690744BF4FF480625A61E7
:101850002A0700F1D2824FEA1A66370600F1C382E6
:10186000700600F1B082E90600F1F181AA0600F1EC
:10187000D3811AF4802F40F005811AF4002F18D17B
:101880001AF0040F02D10FB0BDE8F08F5D68680751
:101890000BD594F8FE31D4F800226FF3820384F85C
:1018A000FE3101209047D4F8A0315D600FB0BDE853
:1018B000F08FD4F8A4219369D76952690292C3F3D7
:1018C0000F43002213EA1747039200F09780DDF8D8
:1018D00004B0CDF810A016463B4615464FF0340C28
:1018E000B846DF0740F1818006F1700904EB8902F8
:1018F000029952689BF80D3097680F405FFA87FA9B
:10190000002B40F08180116903911AF0080F21D05B
:101910007C4A0CFB0620039A0179C2F34172D20083
:1019200063F34511C2F11802017102610CFB064319
:10193000CDF804C05A6822F010025A600020D4F892
:1019400004320146984704EB890308215A68DDF800
:1019500004C091601AF0010F46D09BF80D30002BA7
:1019600063D00CFB0643996A0CFB06431A6B8A4250
:1019700072D09868C1EB020EC0F3120086450CFBD2
:1019800006FE88BF091804EB0E0098BF114681625D
:1019900014F80EE01EF00F0F4FF0000300F1280ABC
:1019A00040F0AE82012161F3D44343F0C04362F3BF
:1019B0000603554A1268527B0CFB06F6002A40F0DB
:1019C000A682A25D02F00F02A11904EB8202486A0E
:1019D000D2F8C41148610B610B6804EB890943F02C
:1019E0000443D9F804200B6097600135EDB258FA32
:1019F00005F32E467FF475AFDDF810A0D4F8A031C2
:101A00004FF400225A613BE71AF0080FA2D03D4A7A
:101A10000CFB0621012B0A796FF345120A7185D15F
:101A20000B69CA6A13440B6180E70CFB0640039BF9
:101A3000C26A816AC3F31203C2EB010EC3EB0E0349
:101A400002EB030E426AC0F82CE0134443620CFB25
:101A500006431A6B8A428CD1CDF804C05A68D96A01
:101A6000196122F010025A60264B2846D3F804323E
:101A700001219847234BDDF804C003EB8909D9F80D
:101A80000420B1E7D4F8A4319A691B69039397B293
:101A9000002F61D00026B6463B464FF0340BCDF800
:101AA00010A0B946DB074FD50EF16A030BFB0EF011
:101AB0000293D4F8A4A154F8233014F800809D6850
:101AC000DAF83410019A039F527B08F00F0C21FAC8
:101AD0000CF1C901C9B2394320440D40B2B9EF0736
:101AE0001A6930D522F06042002A00F01882816A1B
:101AF0000BFB0E42136B8B4233D1536823F0080368
:101B0000536017E0EC10FF1FE810FF1F012A02D1FD
:101B1000290600F12A82E90715D50BFB0E40036B5D
:101B2000816A8B421DD14368012A23F00803436078
:101B300000F07382D4F8043246F080000221984706
:101B4000029B54F823309D600136F6B259FA06F331
:101B5000B646A7D1DDF810A0D4F8A03100225A6112
:101B60008BE60BFB0EF2A018A25C8068C1EB0308A9
:101B7000C0F3120C02F00F02E045069202F16A0275
:101B800028BF01EB0C030BFB0EFC54F8222005923E
:101B900004EB0C0112688B62002001F12808002B75
:101BA00000F0DD8114F80CC01CF00F0F00F0CF81A5
:101BB0004968D8F80470C1F3C62C0CF1FF38D91B62
:101BC0000B461FFA88F818FA81F1C3F3120391FB50
:101BD000FCFCCCF3090CC2490968497B63F3120091
:101BE0006CF3DC40002940F00D820BFB0E4305999D
:101BF0005B6A4B610BFB0EFE029B14F80E1054F84F
:101C0000233001F00F016A3142F0044254F82110F0
:101C100008610A609D6097E7D4F8A81194F8FE2146
:101C20000B68D4F800526FF30A0342F005020B6010
:101C3000022084F8FE21A847D4F8A031DA680921EF
:101C400061F38D224FF40051DA60596111E6D4F846
:101C5000A411D4F8C4914A68D4F8D471D4F8D861E6
:101C6000D4F8DC0142F0010204F5E47898E8005170
:101C70004A60D9F8002042F000626FF35552C9F86B
:101C80000020D8F80020DFF8689242F000626FF37D
:101C90005552C8F80020DCF80020DFF8588242F0E6
:101CA00000626FF35552CCF80020DEF80020DFF818
:101CB00048C242F000626FF35552CEF800203A68F5
:101CC000DFF838E242F000626FF355523A60326852
:101CD000844F42F000626FF3555232600268824EC8
:101CE00042F000626FF35552026040204FF48012C0
:101CF000586260F30F0200209A62C3F80491C3F89F
:101D00000881C3F80CC1C3F810E1C3F81471C3F81B
:101D100018610D900D9A42F020020D920D9A22F456
:101D2000F86242F480620D920D9A1A611A690D925E
:101D30000D9AC2F34012002AF8D10C920C9A42F08C
:101D400020020C920C9A22F4F8620C920C9A1A61FE
:101D50001A690C920C9AC2F34012002AF8D10B9225
:101D60000B9A42F010020B920B9A1A611A690B92AD
:101D70000B9AC2F30012002AF8D14FF00113CB6185
:101D80004B69019843F00F03407B4B610B6943F0B3
:101D90000F030B610B68012862F30A130B6008BF85
:101DA0004A636368D4F8002223F010036360636819
:101DB00023F00803636004209047D4F8A0314FF467
:101DC00080525A6152E594F8FE31D4F8002243F073
:101DD000040384F8FE3100209047D4F8A0314FF07E
:101DE00080425A613FE5D4F8003208209847D4F881
:101DF000A0314FF000425A6132E5D4F8003206209B
:101E00009847D4F8A0314FF400625A6123E5D4F822
:101E1000003209209847D4F8A03108225A61019A6B
:101E2000527B012A7FF40DADF1067FF50AAD6FF309
:101E300004159D611A6AC2F34341022900F0FF8034
:101E4000062949D102F00F0704EB8701C2F30A12F9
:101E5000D1F8C41125480968D4F8E0810E043BD5B7
:101E6000342101FB070EDEF82400A8B35FEA920CD0
:101E70000BD04FEA8C0C002101E0DEF82400D8F8EA
:101E80000060465004316145F7D162451BD0D8F857
:101E9000008018D94FF0340E63460EFB074E002623
:101EA0004FF0FF0909FA06F101EA0801DEF8240003
:101EB000DFF838C0F140C15401339A4206F10806F8
:101EC000F0D1DCF8A031342606FB0746F16A706ACF
:101ED00011440244F162726245F010059D61B0E464
:101EE000E810FF1F90001000A0001000EC10FF1F72
:101EF0005000100060001000700010008000100002
:101F0000A9B961F31203012262F3DC4351E5A25D3A
:101F100002F00F0204EB8202D2F8C4115BE5C26A40
:101F2000816A436AC1628A1A1A444262E0E54268E1
:101F3000DAF80400C2F3C622091A02F1FF3E8E4409
:101F4000BEFBF2F262F3DC4361F3120331E5D8F831
:101F500004105B1AC3F312034FF0010C3BE663F36A
:101F60001200012363F3DC4044E608F00F0808F197
:101F70006A015E4F57F82110C76AD1F818C05B4953
:101F8000069708F1780851F828100791816AC91B53
:101F9000059151D001F103081FFA8CFC4FEA980813
:101FA000E04544D80BFB0E41B8F1000F00F09B80D8
:101FB0000691CDF82490496ADDF81CC0029FDDF837
:101FC0001890CDF820E000200968CCF80010D9F86E
:101FD0002410013004314045C9F82410F4D106988A
:101FE000DDF820E0C06ADDF82490029706900746ED
:101FF000BC46059F0BFB0E40BC443944C0F82CC0C6
:10200000416288E501297FF4F5AD069FDAF83430A6
:10201000B9401943CAF83410ECE5344BD3F8A41195
:102020004B6B02FA0EF223EA02024A6382E54FEAA0
:102030008C010591E046B5E7416A069FD8E702F0BA
:102040000F0704EB8701C2F30A10D1F8C421D4F8BA
:10205000E0C11268254912047FF53EAF342202FB2D
:10206000071EDEF8241000293FF436AF5FEA90081F
:102070000FD04FEA8808002201E0DEF82410DCF8D7
:1020800000608E5004324245F7D1342202FB0742F1
:10209000516A40451ED0DCF800C01BD94FF0340E09
:1020A00043460EFB074E00264FF0FF0801E0DEF826
:1020B000241008FA06F202EA0C02F240CA54013374
:1020C000984206F10806F2D1342202FB0742D4F806
:1020D000A031516A342202FB07470144FA6A79624F
:1020E0000244FA62F8E6496A069F81E7EC10FF1F96
:1020F00010B5054C2046FEF741F92046FEF7B4F92D
:10210000BDE81040FEF7F2B9800000201B4B98425A
:1021100010B504461BD003F50073984217D0184B36
:10212000984224D003F50073984220D0154B984272
:1021300016D003F50073984212D00323E360E368DE
:10214000DB07FCD5236C23F00F03236410BD4FF491
:102150000060FEF795F94FF40060FEF71BF9ECE71D
:102160000948FEF78DF90848FEF714F9E5E7074836
:10217000FEF786F90548FEF70DF9DEE7000003409B
:1021800000000248004002480001001080000010DA
:10219000632900D90AB9012070472DE9F04117469B
:1021A0000C460646FEF702F9184DA5FB0032A5FBCA
:1021B000043552096D0940F2FF3E4FF0010C07FB58
:1021C00005F5C2EB82217046E046B1FBF5F39C0AAF
:1021D000B4F5806FC3F30903A1EB020104D2734588
:1021E00002D29E46A44680460138EED148F4004310
:1021F00033617269064B013F13400CF1FF3C43EA27
:10220000872343EA0C437361BDE8F0811F85EB51DE
:10221000EF8000FC30B4D0F80851084C25F0E065A0
:10222000C0F80851D0F808512C40214341EA02621D
:1022300042EA0323C0F8083130BC7047C0C0FFF841
:1022400030B4D0F80C51094C25F0E065C0F80C51C1
:10225000D0F80C512C4044F08054214341EA0262F2
:1022600042EA0323C0F80C3130BC7047C0C0FFEF16
:10227000D0F80C3123F0E063C0F80C31D0F80C3109
:10228000090641EA022223F47C531343C0F80C31BF
:10229000704700BF10B4836907248C4023EA04030D
:1022A0008A401A4382615DF8044B704710B4D0F83D
:1022B000083107248C4023EA04038A401A43C0F8FB
:1022C00008215DF8044B704710B4D0F80C31072496
:1022D0008C4023EA04038A401A43C0F80C215DF8BD
:1022E000044B70471C4BDB68D90310B51DD51B4B45
:1022F000DB68DA072CD51A48184A13685B0716D42E
:10230000936803F07F030133B0FBF3F3124A1549DE
:10231000D0681269C0B202F0010201300132B3FB91
:10232000F0F0B0FBF2F0086010BD0D4BEEE79168E5
:1023300093689468C1F303620132C4F30641C3F3A6
:10234000062301FB0222B0FBF2F003FB0003DDE7F2
:1023500002F0D6F9D0E700BF004600501047005009
:1023600000366E01C0FF032010B54FF000530FCBB5
:10237000034C84E80F0002F085F902F0C5F910BDA6
:10238000C4FF03200C4A08B513688BB1033020F05A
:1023900003000A491844884202D21060184608BD5A
:1023A0000AF0BCF80C2303604FF0FF33184608BD59
:1023B000034B1360EAE700BFA4D7FE1FC0FF032052
:1023C000000E0020704700BF030A022B16D0032B1B
:1023D00009D0012B03D00020034613607047094B3E
:1023E000136012207047C0B20228F4D8064B074988
:1023F00053F82030136031F810007047044B13601D
:102400003E20704784C8000868C9000874C90008E5
:102410007CC90008454A92F83E319B0710D570B53B
:102420004349847C8B889BB29C4200D070BD4B7822
:10243000203B0446032BF9D8DFE803F0183F630381
:1024400070470B783A49212BF0D13A4892F83E3147
:10245000856823F0020382F83E31002DE6D04988DA
:1024600020462B46C9B2BDE8704018470B78212B97
:10247000DCD192F83E0192F83C312F4920F0020065
:102480002C2582F83E0105FB032202E00B78002B8D
:10249000CCD093689B06F9D500F000FAA06100F05B
:1024A000D1F9207700F0CEF9607700F0CBF9214B1D
:1024B000A0771B68002B34D1B8E70B78A12BB5D1DE
:1024C00092F83E1192F83C3121F002012C2082F862
:1024D0003E1100FB03229368D806FCD49368990749
:1024E000F9D5A06900F0C4F9207F00F095F9607F6C
:1024F00000F092F9A07F00F08FF9BDE8704000F085
:1025000053B90B780A49212B90D192F83E310948F2
:1025100023F0020382F83E3143684A88A282002BEE
:1025200084D02046BDE87040184700BFE415FF1F67
:10253000DC13FF1F00D0FE1FD913FF1F38B5022286
:1025400000230321037543758375C37503764376B2
:102550008376C376037743778377C377027182727A
:1025600001740121044600F0AFF901210546A01DC8
:1025700000F0AAF90121002804F10C0008BF002591
:1025800000F0A2F9002814BF2846002038BD00BF83
:10259000014B01221A7070473413FF1F014B0122B7
:1025A0005A7070473413FF1F014B01229A70704715
:1025B0003413FF1F08B581200E49402200F076FE3B
:1025C00082200D49402200F071FE03200B49402279
:1025D00000F06CFE0A48FFF7B1FF48B1094A0A490A
:1025E00092F83E31042043F0010382F83E31087036
:1025F00008BD00BF3813FF1FF412FF1F7813FF1F21
:10260000B813FF1FE415FF1FD913FF1F0148FFF781
:1026100001BF00BFB813FF1F2D4991F83E21D3071A
:1026200000D470472B482C4B00682DE9F04E6FF317
:1026300000024FF0000A4FF00309284C81F83E21B8
:1026400083F812A083F811A083F8109002696669DC
:102650005661E669D661A66983F80BA082B083F85B
:1026600005A083F8069096614FF0810A266983F8E9
:102670000CA04FF00809A3F80E902168A768E56840
:1026800016614FF0400B266AA3F808B04FF0020A1B
:102690004FF0820983F80AA00191A3F802B06168A3
:1026A00083F804A083F8009016629760D560019BC0
:1026B0001360636A5160536200F060FD10B102B0B4
:1026C000BDE8F08E02B0BDE8F04E00F0E3BD00BF03
:1026D000E415FF1F34D0FE1FB813FF1F0CD0FE1FE0
:1026E000264A274B106827492DE9F04E4FF0000A83
:1026F0004FF0030983F812A083F811A083F810901B
:1027000002694E695661CE69D66182B08E690C68E5
:10271000966183F80BA00E6983F805A083F80690F4
:102720004FF0810A4FF00809CD688F68166183F871
:102730000CA00E6AA3F80E9001944FF0400B4FF0DE
:10274000020A4FF082094C68A3F808B0166283F8B9
:102750000AA0D5609760A3F802B083F804A083F8BC
:102760000090019B82E818004B6A536200F006FD5E
:10277000003018BF012002B0BDE8F08E34D0FE1F3B
:10278000B813FF1F0CD0FE1F08B500F089FD30B153
:10279000034B1878A0F10400B0FA80F0400908BD9E
:1027A000D913FF1F00F076BDF8B5194991F83C31F7
:1027B0002C2202FB03139A68D00602D49A6892076F
:1027C00000D4F8BD18891F6A124E40F0100003F1C2
:1027D000280503F120041881D869A0606F600020EB
:1027E0004FF40067D861C6F88C70BFF34F8FBFF30A
:1027F0006F8F0A6818796968136BA26898476A68CE
:10280000A36802441B1A6A60A360F760F8BD00BFAA
:10281000E415FF1F00E100E0094A92F83C312C2149
:1028200001FB032202F11803516A5A688A4200D35D
:10283000FEE7996888545A6801325A60704700BFB1
:10284000E415FF1F094B93F83C212C2101FB0233B7
:1028500003F10802516801B9FEE75869936801392C
:10286000C05C516001339360704700BFE415FF1FE7
:10287000094A92F83C312C2101FB032202F1180392
:10288000526A5968033A914200D3FEE79A68505061
:102890005A6804325A607047E415FF1F094B93F8D9
:1028A0003C212C2101FB023303F10802516803296A
:1028B00000D8FEE7586993680439C0585160043362
:1028C00093607047E415FF1F002942D02DE9F843BB
:1028D0004D1EE9B2204F062505FB01050A3500F122
:1028E00004093E464FF02C081CE019F8042C1A711C
:1028F00039F8022C198962F38C11CAB242F0010234
:1029000019811A721A8942F002021A8119F8040C0C
:10291000020609F1060903D432689969936A984757
:10292000A94513D019F8043C3A6899F80010D2F878
:102930001CC039F8022C184603F00F04E04708FBCE
:1029400004630028D1D00020BDE8F8830120BDE851
:10295000F8830120704700BFE415FF1F09280ED837
:10296000DFE810F00A00190023002A0034000D00EF
:10297000E8000E000D00F600B74B01221A707047F8
:10298000B64BB54AD3F8400193F83A1183691170F8
:10299000002BF4D01847B14BAF4AD3F840315B68F5
:1029A00000211170002BF5D1E9E7AC4BD3F8403191
:1029B0001B68002BEED1E2E7A84BA74AD3F84031C1
:1029C0005B6801211170002BE4D1D8E770B5A24BF0
:1029D000A24C02221A70228994F83E316FF304123D
:1029E000228122896FF3C302228122896FF382023E
:1029F0002281A28E6FF30412A286A28E6FF3C3020D
:102A0000A286A28E6FF38202A28694F834206FF31E
:102A10008203012184F83E31D30784F83B1100F191
:102A20009F80B4F860308D4D6FF30413A4F86030CC
:102A3000B4F860306FF3C303A4F86030B4F86030CA
:102A40006FF38203A4F8603094F86030DE0700F181
:102A5000EC80B4F88C30814D6FF30413A4F88C3003
:102A6000B4F88C306FF3C303A4F88C30B4F88C3016
:102A70006FF38203A4F88C3094F88C30D80700F1FF
:102A8000BF80B4F8B830754D6FF30413A4F8B830B4
:102A9000B4F8B8306FF3C303A4F8B830B4F8B83062
:102AA0006FF38203A4F8B83094F8B830D90700F176
:102AB0009280B4F8E430694D6FF30413A4F8E43065
:102AC000B4F8E4306FF3C303A4F8E430B4F8E430AE
:102AD0006FF38203A4F8E43094F8E430DA0766D4A4
:102AE000B4F810315D4D6FF30413A4F81031B4F84D
:102AF00010316FF3C303A4F81031B4F810316FF341
:102B00008203A4F8103194F81031DB073BD4002382
:102B1000226884F8393184F83831936A2079182191
:102B20009847D4F840315B6A002B00F09380BDE8F1
:102B300070401847494A484BD2F84011187882F83B
:102B40003A01CA6905211970002A3FF418AF1047ED
:102B5000424BD3F840311B6A002B7FF41BAF0EE7CA
:102B6000236894F830001B6A984700287FF459AF17
:102B700094F8343060F3000384F83430A38E60F3AB
:102B80004103A3864DE72B6895F80C011B6A984713
:102B90000028BCD195F8103160F3000385F810319E
:102BA000B5F8103160F34103A5F81031AFE72B6899
:102BB00095F8E0001B6A9847002891D195F8E43019
:102BC00060F3000385F8E430B5F8E43060F34103C6
:102BD000A5F8E43084E72B6895F8B4001B6A9847A1
:102BE00000287FF466AF95F8B83060F3000385F8ED
:102BF000B830B5F8B83060F34103A5F8B83058E7FD
:102C00002B6895F888001B6A984700287FF439AF35
:102C100095F88C3060F3000385F88C30B5F88C3073
:102C200060F34103A5F88C302BE72B6895F85C0026
:102C30001B6A984700287FF40CAF95F8603060F36A
:102C4000000385F86030B5F8603060F34103A5F803
:102C50006030FEE670BD00BFD913FF1FE415FF1FF3
:102C600010B5084C236880205B6A0121984700B1A9
:102C700010BD236801229B6A84F83B211821BDE81E
:102C800010401847E415FF1F70B5A24CA24ED4F8AF
:102C900040317088DA6882B0002385B200930193D6
:102CA00002B1904794F83E319B0707D494F83E3127
:102CB00023F0020384F83E3102B070BD7378EDB2A8
:102CC0000C2B16D8DFE813F02500BE0015009D0080
:102CD0001500D0005600150083008A000D00780012
:102CE00015008E4B1A78042A00F036811B78032BCE
:102CF000DCD12368874D5B6A80200121984700283A
:102D0000D4D12B6801229B6A85F83B211821984772
:102D1000CCE73078804B10F0030000F003811B7883
:102D200003F00303012B00F0E78033787A4A03F0C5
:102D30000303022BDDD179499388097804299BB2DA
:102D400003D0928892B2002AD3D12C2203F00F0331
:102D500002FB03436F491A7AD007CAD59B680A68F9
:102D600002A9C3F3800341F8043D0020136B022243
:102D700098479BE7D4F840315B69002BB9D0708845
:102D8000B188654E80B289B26A46984705460028E8
:102D9000AFD0F38800999BB2984228BFF58823688A
:102DA00028BFADB21B6B2A4600209847009B2D1A06
:102DB0001844A562E06279E7584B1A78042A95D145
:102DC0007288B38814FA83F383F838216EE7236896
:102DD00053491B6B01220020984767E7D4F8403124
:102DE00084F839519B6803B19847002D54D094F86A
:102DF0003E31484DD90740F1A680484B04221A7055
:102E000054E7022D3FF475AF444B1A78042A67D07B
:102E10001B78032B7FF46DAF002D7FF46AAF3378FE
:102E20003D4A03F00303022B7FF463AF938813F052
:102E3000FF0F7FF45EAF238943F004032381FFF784
:102E40000FFF33E73378344A03F00303022B27D014
:102E5000137813F003037FF44CAF94F83E2163F32F
:102E6000820284F83E2121E72C4B95B902221A7088
:102E70002368284E9B6928460021984700287FF444
:102E800015AFD6F840311B69002B3FF40FAF9847C0
:102E90000CE703221A70EBE7204B03221A7005E7B8
:102EA0001E499388097804299BB204D0928892B273
:102EB000002A7FF41EAF2C2203F00F0302FB034312
:102EC00014491A7AD5077FF514AF1A896FF3820275
:102ED0001A81B0880B68C0B25B6A00219847E5E6AA
:102EE000002D44D0012D7FF4E1AE94F83E3143F043
:102EF000040384F83E31D9E6084B1B78042B7FF499
:102F000014AF02A92368002041F8040D1B6B0222B4
:102F10009847CBE6E415FF1FDC13FF1FD913FF1FF3
:102F20001D17FF1F94F83E312268C3F380056D0022
:102F3000EDB202A9C3F3C0032B4341F8043D136B68
:102F400002229847B2E62B6880205B6A01219847ED
:102F500000287FF4ABAED4E6B188236889B201F5CE
:102F60009C7121441B6B0122002098479EE6B38888
:102F70000A480B492C2203F00F0302FB03431A7A81
:102F8000D2077FF55CAF1A8942F004021A810B6800
:102F900080885B6A0121C0B2984787E6DC13FF1F77
:102FA000E415FF1F2DE9F843724C00F00F050129CD
:102FB00020F07F0094F83D7194F83C8184F83D0145
:102FC0002E4684F83C5167D03AD3022932D12C23C3
:102FD00003FB054303F120099A6A002A40F091801F
:102FE0001879020714D1DA6992B16349C98889B2A4
:102FF0008A420DD01B89C3F38613B2FBF3F103FBA6
:10300000112129B923680A461B6B984794F83C5153
:10301000DFF860912C2303FB064600223389F2611E
:1030200062F3041333812DB999F83B31022B78D028
:10303000032B4ED084F83C8184F83D71BDE8F883C1
:103040002C2303FB05431A896FF3C3021A81002D59
:10305000F0D12368484EDB6A31462846082298475B
:1030600094F83E31082843F0020384F83E31E1D160
:10307000B6F806901FFA89F9B9F1000F68D03378D5
:10308000190671D4F188236804229B6A84F83B21D5
:1030900089B228469847CDE72C2303FB0543994680
:1030A0001A8942F0200229F8082FD9F80420DAB151
:1030B0002C2303FB0646DFF8BC9033896FF3C30370
:1030C0003381002DB6D199F83B31042B33D0052B39
:1030D000B0D1D9F8003099F804009B6A18219847BC
:1030E000012389F83B31A5E72168C9F80820CD6A9A
:1030F000187959699A69A84794F83C51C9F80400AD
:10310000D6E7216818790E6BD96A03F12805B04714
:103110006A68D9F8083002441B1A6A60C9F8083096
:1031200088E7D9F8003028469B6A29469847052346
:1031300089F83B317EE7FFF7A7FDD9F80030284634
:103140001B6B29462A469847032389F83B3171E7D0
:10315000032384F83B31FFF797FD236848461B6B38
:1031600049464A46984765E7022384F83B31FFF712
:103170008BFD5FE7E415FF1FDC13FF1F70B53C4CB0
:103180000546FEF7B5FF00214FF4A272204609F074
:1031900014FA384B38482060012600201870267237
:1031A0002389364A626143F002032381238934492B
:1031B0002162402262F38C1323812B69D96884F841
:1031C0003B614FF4807230466262A26121B35A695A
:1031D00012B39A6802B3C4F84031FDF73FF923688F
:1031E0002849294A5B686960AA60284698470546CD
:1031F000A8B1FEF77DFF23689B68984750B9234B21
:103200004FF40062C3F88C21C3F88C20BFF34F8FBA
:10321000BFF36F8F284670BD0546284670BD1C4B16
:10322000DB68C3F30223C3F10701062928BF062187
:10323000DBB15A1E01238B40013B03F03B0393405B
:103240009B00124ADBB282F86B3323684FF40061B3
:103250000020C2F88C11DB69D160014640229847FA
:1032600005460028C5D1284670BD1A46E2E700BFD2
:10327000E415FF1FD913FF1FDCC70008E414FF1F6C
:10328000E413FF1F5D290008A52F000800E100E0FE
:1032900000ED00E0014B1B68DB681847E415FF1FD9
:1032A000014B1B68DB6B1847E415FF1F10F0800F04
:1032B00010B40A4B00F00F044FF02C0006D100FBB5
:1032C00004335DF8044B59619A61704700FB043484
:1032D000216262625DF8044B704700BFE415FF1F76
:1032E000014B1868FEF798BA34D0FE1F43685B683C
:1032F000184700BF70B58468E368A26893421BD288
:10330000426892F82B200546002A35D00068D0F894
:103310001421D20403D538E0A2689A4224D9226845
:10332000D15CFDF75BFD2868E368D0F81421013318
:10333000D604E360F0D570BD0268D2F814311905E7
:1033400012D5416891F82B307BB9136C23F40053EC
:103350001364936B1B06FCD48A68002323762360D6
:1033600012B1BDE87040104770BDD2F8083123F0AB
:103370008043C2F80831ECE722680068D15CFDF7B1
:103380002DFDE3680133E36070BD70BD436893F8C1
:103390002C302DE9F0410646856843B36C692B69F2
:1033A000006801E09C4210D0D0F8142112071AD412
:1033B000A342F7D96F68FDF723FD38556C692B6977
:1033C000306801349C426C61EED100236B767268E8
:1033D000D0F80C31D26823F0C043C0F80C3122B1D0
:1033E00090476C692B699C4215D3BDE8F0816C69EC
:1033F0002B699C4221D39C42F7D13268716800232B
:103400006B76136CC96823F4404313640029ECD035
:10341000BDE8F041084796E8050092F82C1001221B
:103420001C1B02FA01F39C4234BF04F1FF3203F18A
:10343000FF32BDE8F041FEF71BBF00686F68FDF783
:10344000DFFC38556C692B6901349C426C61CCD12E
:10345000D3E700BF10B5384C384A39480221FCF791
:1034600047FF20463749FDF787FCE36923F0070350
:10347000E3612046102104220123FEF7CBFE002148
:103480000B4620460422FEF7DBFE236C2C482E4A16
:1034900023F00F0343F0020323640521FCF728FF08
:1034A000204610210022FEF7F5FE204610210422BE
:1034B000FEF7FCFE204610210522FEF705FF132132
:1034C00020460522FEF700FF204BDB68C3F30223F2
:1034D000C3F10701062928BF06214BB35A1E012359
:1034E0008B40013B03F03E0393409B00184A174971
:1034F000DBB24FF0807082F858339060CB68C3F332
:103500000223C3F10701062928BF062193B15A1EE1
:1035100001238B40013B03F03E0393409B000C4A88
:10352000DBB24FF0007182F859330020916010BD7A
:103530001A46D4E71A46EBE70002034010CA000817
:1035400000820248ECC9000804CA000800ED00E04F
:1035500000E100E00148FFF7CDBE00BF4CD0FE1FE8
:103560000148FFF713BF00BF4CD0FE1FF8B590F81D
:103570003A3043B990F8355004463DB1012D1E460E
:103580002FD03046F8BD00263046F8BD006900F067
:1035900043FF236994F818E09F68E169FA68012302
:1035A00003FA0EF3134306466069FB60FDF7CCF99E
:1035B000236960699A6894F83930E78EE168476357
:1035C000C5631161002B38D194F838200221012302
:1035D000016184F83A3002B1C36094F83550012D8E
:1035E000CFD1606A00F004FF636A94F82C709A6887
:1035F000216BD368BD401D430646A06AD560FDF728
:103600000DFAA06AE18EFDF727FA00210A46A06AAA
:10361000FDF72CFA626A94F839309268E16811611A
:10362000C3B9A36A94F8381002200122186184F803
:103630003A200029A5D0DA60A3E7294694F8202093
:10364000FDF7A4F96069D0F8A43043F00103C0F895
:10365000A430B9E794F83420A06A0021FDF70CFAF1
:10366000A36AD3F8A42042F00102C3F8A420D9E74A
:1036700090F83A306BB190F835302BB1012B0AD16C
:10368000826A0020D3607047426901211846D160E8
:103690007047012070470020704700BF90F8352028
:1036A00072B943699B6803F001035BB190F83A304B
:1036B00043B172B1012A11D1836A00201A617047A7
:1036C000012A01D001207047836A9B6803F001033F
:1036D000EBE74369012110461961704700207047EC
:1036E0002DE9F84390F83560002E5FD143699B685F
:1036F00003F00103002B56D183688B4253D84568F1
:10370000A94250D8B1EBD53F40F291800023C3F1DC
:103710000E0225FA02F25C1C91422346F7D80D46B0
:103720000746002E4BD00120012E3DD17B6AD7F8F1
:1037300030E01A689EF80CC004F00F06A5FB0223C7
:10374000C6F1200122FA06F003FA01F1A6F12002E7
:1037500064F3030C084323FA02F28EF80CC023FA38
:1037600006F1104334A3D3E9002308F001FC80B232
:10377000012888BF00F1FF30E1B2F88601F00F01A7
:10378000B86AFDF76BF9B86AF98EFDF765F90021A3
:103790000A46B86AFDF76AF97B6AFA689B680020F6
:1037A0001A61BDE8F8830120BDE8F883012EA3D19A
:1037B000836A9B6803F00103002B9DD0F3E7036944
:1037C000C6691A6896F804E004F00F03A1FB0289A9
:1037D000C3F1200128FA03F009FA01F1A3F1200254
:1037E00064F3030E084329FA02F286F804E010435A
:1037F00029FA03F110A3D3E9002308F0B9FB80B242
:10380000012888BF00F1FF30E1B2F88601F00F0116
:103810007869FDF7B3F83A697B69F88E9268F968C0
:1038200058630020D86397F8356011617CE7002465
:1038300075E700BFAFF3008000E1F5050000000070
:1038400090F835303BB94269D2F8B03043F001030B
:10385000C2F8B0307047012B06D1826AD2F8B0307E
:1038600043F00103C2F8B030704700BF90F83A301F
:1038700073B190F8353033B1012B0BD1836A02223A
:103880001A61002070474269022118461161704791
:103890000120704700207047204BF0B4DB680478AB
:1038A00041788778C3F30223C3F10705062D28BFAB
:1038B00006254BB35E1E0122B240013A02EA07031D
:1038C0000122AA40013A0A4061B2B240002943EA0B
:1038D00002031BDB01F1604202F561429B00DBB297
:1038E00082F80033C37863B1027853B2002B08DB4F
:1038F00002F01F025B090121094801FA02F240F8B7
:1039000023200020F0BC70471E46D9E7054A04F08A
:103910000F049B002244DBB21376E3E700ED00E0E6
:1039200000E100E0FCEC00E028B108B543685B680A
:103930009847002008BD0120704700BF2DE9F843DB
:103940000C46416891F8241005469DF8240011B1F9
:103950000220BDE8F8831646AF6814B997F828200E
:1039600052B34BB3089A3AB30022BA6197F82620B3
:1039700002F0FF08002AEBD13B604FF00109089BE1
:10398000C7F80C80F8614FF080412868BB6087F869
:103990002690FDF7CFF9286897F824201021FEF72C
:1039A00079FC64B997F824102A684FF480338B406F
:1039B00020469366BDE8F8830120BDE8F883AA6835
:1039C000286892F8283003F0FF0463B982F8289041
:1039D000C36C43F00403C364B1B22246FDF71CF983
:1039E0002046BDE8F883C36C43F00803C364B1B25A
:1039F0004246FDF729F94046BDE8F88370B5064612
:103A00000068B468836C13F4B17F63D1A3694BBBC6
:103A1000736893F82650002D00F08B80E168A2684F
:103A20009142C0F0C08093F82820D0F8081153B21A
:103A300021F08041002BC0F8081109DB5B096033DD
:103A400002F01F020121834D01FA02F245F8232002
:103A5000D0F814311D05FBD594F82830002B40F028
:103A6000CA8070BD736893F82620002A7FD093F82F
:103A70002730002B00F09580012101FA02F59940D2
:103A8000A94228BF2946CDB2D0F8083123F080439F
:103A9000C0F80831024608E0FDF716F9E368013383
:103AA000E360E368AB426FD23268D2F8143113F4AA
:103AB000805F104668D1E368A1688B4264D2E368F6
:103AC00001339942E8D1236A012BE5D11046FDF775
:103AD00011F9E3E7D0F80821736822F08042C0F8BA
:103AE0000821026C996922F400520264846C39B195
:103AF000A50605D5C36C43F02003C36488477368EB
:103B0000DA6942B1610606D53168CB6C43F04003F7
:103B1000CB64904773681B6A002BA2D014F4817F9A
:103B20009FD03168CA6C42F48072CA64BDE87040AC
:103B30001847E268A3689A4269D394F82830002BAA
:103B40008FD04FF08041FDF705F9E369012B6AD072
:103B50003268936B1B06FCD473681B69002284F8DF
:103B60002620002B3FF47DAFBDE870401847E36886
:103B7000A2680133934202D1236A012B50D0FDF792
:103B8000A3F8E3680133E360B368DA689B689A429C
:103B90007FF467AF30684FF08041BDE87040FDF7BB
:103BA000D9B8022570E74FF08041FDF7D3F83068AF
:103BB000D0F8083143F08043C0F80831D0F8143110
:103BC000DA043FF54EAFE368A2689A4205D83FE0B9
:103BD000E268A3689A42BFF444AFE3682268D15C0C
:103BE000FDF760F8E36830680133E360D0F8143122
:103BF000DB04EDD570BD4FF08041FDF7ABF8E36914
:103C0000012B1AD03268936B1906FCD4A4E7E36841
:103C10002268D15CFDF746F8E3680133E36070BDCC
:103C2000FDF768F8ADE7306884F82850C36C43F0BE
:103C30001003C364FDF720F88AE73068002384F896
:103C40002830C36C43F01003C364FDF715F8D9E7BF
:103C500070BD00BF00E100E02DE9F04745689DF828
:103C600024E00E4695F8251004469DF8280011B171
:103C70000220BDE8F087A7689046B9461EB997F8BC
:103C80002820002A55D0002B53D0089A002A50D063
:103C900097F8272002F0FF0C002AE9D195F827A019
:103CA00008997B600122BA61396187F826203B6060
:103CB00087F82720B960C7F814C0C7F81CE038623D
:103CC000C7F80CC0BAF1000F36D123681A6C42F461
:103CD00040421A64002E00F09C8095F82420013A9E
:103CE000012A0BD918464FF08041FDF723F897F8C9
:103CF000242020681021FEF7CDFAA76897F8283015
:103D0000002B40F0FA802068012287F82820C36C3D
:103D100043F004031FFA88F1C364FCF77DFF636876
:103D200093F82430013B012B40F2F2800020BDE8E3
:103D3000F0870120BDE8F08795F8263020684FF421
:103D40008045C0F8185102FA0AF5002B74D09A4049
:103D5000D3B20899EAB28A4228BF0A469A4228BFDB
:103D60001A46013A5146FEF783FA2068D0F80C3122
:103D700043F0C043C0F80C316368002E5ED093F866
:103D80002430013B012B0AD94FF08041FCF7D2FFD0
:103D9000206897F824201021FEF77CFA2068A36899
:103DA00093F82820002A40F0DC80012283F82820A4
:103DB000C36C43F004031FFA88F1C364FCF72CFFC3
:103DC000636893F82420022AB0D193F82630002BA0
:103DD00000F0D1802268D2F81431DB04A6D409E0C7
:103DE000FCF772FFFB6822680133FB60D2F81431E4
:103DF000DE049BD4FB68B9688B4297D2FB68013321
:103E000099421046ECD13B6A012BE9D1FCF772FFD5
:103E1000E8E795F82620002A41D1FA68089901328E
:103E2000914202D1012800F0B2801846FCF74CFF05
:103E3000FB680133FB6079E713468AE793F8263085
:103E4000002B7BD0D0F8083123F08043C0F8083134
:103E5000D0F81431DD043FF569AFFB68B9688B42D7
:103E600038BF024610D361E7FCF72EFFFB682268DB
:103E70000133FB60D2F81431D9043FF557AFFB682A
:103E8000B9688B42BFF452AFFB68013399421046C8
:103E9000EAD13B6A012BE7D1FCF72CFFE6E7D3F828
:103EA0000821216822F08042C3F80821D1F814319A
:103EB000DA043FF53BAFFB68089A9A4288BF134685
:103EC00010D833E7FCF700FFFB6821680133FB6083
:103ED000D1F81431DB043FF529AFFA68BB689A4288
:103EE000BFF424AFFA68013293420846EAD13B6A34
:103EF000012BE7D1FCF7FEFEE6E72068C36C43F038
:103F000008031FFA88F1C3640122FCF79DFE06E74F
:103F1000D9F80C30D9F808200133934203D1D9F8ED
:103F20002030012B37D02068FCF7CEFED9F80C30BA
:103F30000133C9F80C300020BDE8F087FA68BB688F
:103F40009A42BFF4F3AEFA680132934202D13B6A5F
:103F5000012B1DD0C36C43F47243C364FCF7B4FE61
:103F600066E7C36C43F008031FFA88F1C3640122BB
:103F7000FCF76AFE24E7FB68BA680133934202D17A
:103F80003B6A012B0BD02068FCF79EFE50E71846D9
:103F9000FCF7B0FE4CE72068FCF7ACFEC6E72068F3
:103FA000FCF7A8FE44E700BF2DE9F041846894F8CF
:103FB0002730002B40D0436893F82730064663BB78
:103FC000006865696768FCF7ABFE7855636922692C
:103FD000013363616369934280F0AA80E268A36859
:103FE0009A4229D2E268013B9A4200F0E5803068AB
:103FF000FCF76AFEE3680133E360BDE8F0816769BE
:10400000D4F80480FCF78CFE08F807006369206987
:10401000013363616369834210D03368D3F814219C
:1040200012F008051846EAD020696169814202460B
:1040300011D36369934259D0BDE8F081336884F8A5
:104040002750D3F80C2122F0C042C3F80C2161693B
:1040500081420246EDD27268656992F8271092F8A3
:1040600026E0012202FA01F7451BBEF1000F02D043
:1040700002FA0EF2D2B2F8B2A84228BF2846824213
:1040800028BF0246013A1846FEF7F2F8736893F823
:104090002620002A60D093F82710012303FA01F5A7
:1040A0009340AB4228BF2B46DDB2002708E0FCF767
:1040B0000BFEE3680137FAB201339542E36049D958
:1040C0003268D2F8143113F4805F104642D1E368AD
:1040D000A1688B423ED2E36801339942E7D1236A5B
:1040E000012BE4D11046FCF705FEE2E73068D0F87A
:1040F0000C3123F0C043C0F80C31036C23F440436F
:10410000036494F82830002B96D0B468E369012B3F
:104110002FD0836B1906FCD473685A69002384F886
:10412000273084F82630002A86D0BDE8F0411047B9
:104130003068036C23F44043036494F82830002B68
:104140003FF47AAFB468E369012B20D0836B1B0680
:10415000FCD4E1E722696CE7E368A268013393428B
:1041600023D03068FCF7B0FDE36822690133E360D7
:104170005FE7836B1D06FCD4002384F82830C36CF2
:1041800043F01003C364FCF777FD3068C1E7836B2D
:104190001A06FCD4002384F82830C36C43F01003C3
:1041A000C364FCF769FD3068D0E7236A012BD8D1DE
:1041B0003068FCF79FFDD7E7236A012B7FF417AF28
:1041C0003068FCF797FD15E7436810B5044693F88F
:1041D000240050B110F1FF3018BF01202368DA6CC1
:1041E00002210A43DA64996610BD93F82620A36879
:1041F00083F82600186083F8280052B12368D3F8AA
:1042000008214FF4004122F08042C3F80821C3F88E
:10421000181120684FF08041FCF79CFD0020DDE77D
:10422000426808B592F8253023B113F1FF3018BF6A
:10423000012008BD92F82710826882F82730536069
:1042400082F8263082F82830026851B9136C23F4C2
:104250004043136400684FF08041FCF77BFD002071
:1042600008BDD2F80C3123F0C043C2F80C31F1E79D
:1042700008B5064805210022FCF748FC044808213F
:104280000022BDE80840FCF741BC00BF00810248A5
:104290000080024808B506480521D022FCF736FC0C
:1042A00004480821D022BDE80840FCF72FBC00BF1D
:1042B000008102480080024810B53F4C3F4920462B
:1042C000FCF748FCE36923F00703E361236A23F06A
:1042D000070343F001032362E36943F02003E36132
:1042E000E36943F04003E361236A43F02003236260
:1042F000236A43F040032362204608210322FDF78E
:10430000C9FF20460C210322FDF7C4FF00222046EE
:104310001021FDF7BFFF20464FF0B071FCF70AFDFA
:10432000236C2748274A43F460432364236C23F01B
:104330000F0343F0040323640521FBF7D9FF082191
:104340002148224AFBF7D4FF214BDB68C3F3022349
:10435000C3F10701062928BF062143B35A1E0123D2
:104360008B40013B03F03C0393409B00194A1849E2
:10437000DBB24FF4001082F855339060CB68C3F382
:104380000223C3F10701062928BF06218BB15A1E5B
:1043900001238B40013B03F03C0393409B000D4AFB
:1043A000DBB24FF4000182F85733916010BD1A461A
:1043B000D5E71A46ECE700BF000003406CCA0008CE
:1043C0000081024828CA00080080024834CA000858
:1043D00000ED00E000E100E00148FFF70FBB00BF87
:1043E00058D1FE1F0148FFF7DFBD00BF58D1FE1FA7
:1043F000437B0BB10020704710B504468068217BD9
:10440000FCF7E0FAA268D368012143F48073D3601B
:104410000020617310BD00BF437B0BB100207047CB
:1044200010B504468068217BFCF74AFAA268D3687D
:10443000012143F48073D3600020617310BD00BF7D
:104440002DE9F04F047885B01CB1002005B0BDE81F
:10445000F08F7A4BDFF8F48179495C6041F2180201
:10446000C8F804408B58019023F00F0343F0010378
:104470008B508B58734FDFF8ECB143F400438B50F3
:10448000FCF71EFB7048FCF713FB009423464FF02B
:1044900000094FF0010A0AFA03FA4B4607F54054A7
:1044A000B9461F4603E0A4F580544C452CD36568FB
:1044B000654821464FF0000E40F6FC7203AB002D1C
:1044C000F1D0D8F80C604AEA0606C8F80C600FB9BB
:1044D00004F5805751F8046BCBF818E0FCF702FBA9
:1044E000039B9E42DFD1554B5B689D42DBD93B4627
:1044F0004F469946514BC8F804405D60009BC8F890
:104500000830C8F8009001E0009B4F460133042BAF
:10451000009307F58047BAD14949D8F808004B4CB9
:1045200041F218028B5823F00F038B5030B1E3682F
:10453000D80762D4D8F80830012B08D0D8F80C304E
:10454000424C99074BD4D8F80830022B08D0D8F841
:104550000C303E4C5A075ED4D8F80830032B04D0F8
:10456000D8F80C30394C1B072BD4D8F80400374B43
:1045700078B9344A98601A60314941F2180201242E
:104580008B5823F400438B50019B1C7005B0BDE891
:10459000F08F2F4A031F00F6FC7453F8041F42F8F3
:1045A000041FA342F9D1D8F800302A4A2749181A23
:1045B000B0F5805018BF01209342DDD9214B0B602C
:1045C000DAE7FBF76BFE2448FBF776FEFBF76CFEA1
:1045D00020282ED1E36823F00803E360C5E7FBF74A
:1045E0005DFE1E48FBF768FEFBF75EFE202820D12B
:1045F000E36823F00203E360A5E7FBF74FFE1148F1
:10460000FBF75AFEFBF750FE202814D1E36823F095
:104610000103E3608EE7FBF741FE1148FBF74CFE18
:10462000FBF742FE202804D1E36823F00403E36093
:1046300092E70420A0E700989EE700BFF0D7FE1F96
:10464000001000580000010C74CA000894D1FE1F2D
:10465000ECD7FE1FFFFF010C00C0010C0040010C55
:104660000080010C2000025010B50446021D217C80
:104670000068FBF73DFE2068217C627CFCF75AFA5B
:10468000002010BD184B194AD8684FF6FF010140B1
:104690000A43DA6072B6164A9A60BFF34F8F62B669
:1046A000D3F88820134842F4700241F21401C3F891
:1046B0008820425822F00F0242F0040242505A6908
:1046C00022F010025A615A6922F008025A615A6AAD
:1046D00022F480325A625A6A22F400325A625A6ACA
:1046E00022F480225A62704700ED00E00001FA05D2
:1046F00000000008001000580123037000207047DC
:1047000000487047001BB70030B5154D0FCD87B07E
:1047100001AC0FC42B68236001A8FBF7C9FF002080
:10472000FBF764FE4FF48030FBF74CFE0620FBF7EE
:104730006DFE64210320FBF7AFFE0A4A936B23F45E
:10474000803393630220FBF77FFE0020FBF744FEDB
:104750000120FBF76FFE0120FBF762FE07B030BDC2
:10476000A8CA00080046005008B52048FFF7C4FF5B
:1047700000B108BD1E48FFF7D7F80028F9D11D4841
:10478000FEF7F4FE0028F4D11B48FFF785F8002857
:10479000EFD11A48FEF7EAFE0028EAD11848FFF7E1
:1047A0007BF80028E5D11748FFF75EFF0028E0D12D
:1047B0001548FEF79BFD0028DBD11448FDF790FF5C
:1047C0000028D6D11248FFF74FFF0028D1D1114859
:1047D000FFF762F80028CCD10F48FEF7C7FE00288B
:1047E000C7D10E48BDE80840FFF72ABEF4E7FE1F18
:1047F00058D1FE1F58D0FE1F20CA000894D0FE1FBB
:104800001CCA000880CA00084CD0FE1FA8D7FE1F93
:1048100094CA000824CA0008D0D0FE1FF0E7FE1F8B
:10482000002070472DE9F04FADB00E4601A892462A
:104830001D46BDF8D880BDF8E070BDF8E84006F030
:10484000EDF9C6B1BDB1379BABB1399B9BB108F156
:10485000200909EB0703802B10DD0CAD042401A80F
:1048600006F0F6F928460021802207F0A6FE204631
:104870002DB0BDE8F08F0CAD0124F0E7062006F066
:10488000BFF929468346424614A80CAD07F08AFEBC
:1048900037993A4605EB090007F084FE01A859460E
:1048A000012206F0EFF90028D8D13146524601A87E
:1048B00006F00CFA0028DFD108EB0706B6B214A9FF
:1048C000324601A806F0FAFA0028D5D101A82946F7
:1048D00006F008FB0028CFD1002C42D0203604F08F
:1048E0001F08002714E04346B8F1000F0CD05A1EF1
:1048F000002B399B92B202F1010203EB070008BFC3
:10490000012204A907F04EFE1FFA89F7BC4228D9FC
:1049100001A806F01FFBF8B901A82946324606F0A7
:10492000CDFAC8B901A804A906F0DCFAA0B901A81B
:1049300006F010FB80B901A82946202206F0BEFA35
:1049400050B901A8294606F0CDFA28B907F1200987
:10495000A145C8DC2023CAE7BC4294BF002401243F
:104960007DE700247BE700BF2DE9F04F99B00AA84E
:10497000279DBDF88C90BDF894A09DF898700E46C8
:1049800090461C4605F0FCFF65B15EB1229B4BB121
:10499000249B3BB134B122460AA80221802305F0B2
:1049A000F3FF38B101240AA806F014F8204619B024
:1049B000BDE8F08F249B02960DF1180B8DE80804DA
:1049C000039505974B46CDF810B00AA84146229AA8
:1049D00006F00CF804460028E4D105EB080059461F
:1049E0003A4607F0DFFDDEE72DE9F04794B006A870
:1049F000219DBDF87490BDF87CA09DF880800C4688
:104A000017461E4605F0BCFF65B15CB11C9B4BB15F
:104A10001E9B3BB136B1324606A80221802305F029
:104A2000B3FF38B1012406A805F0D4FF204614B026
:104A3000BDE8F0871E9A0294C8EB070163188DE861
:104A4000040404930395CDF814804B4606A81C9AE1
:104A500005F0D8FF041C18BF0124E4E730B1036857
:104A600023B1197C1A6801238B405360704700BF43
:104A700038B103682BB1197C1A684FF480338B402E
:104A80005360704708B5054B1B680021DA689868C9
:104A90009047034B00221A6008BD00BFF8E7FE1FD5
:104AA000FCE7FE1F08B5054B1B680021DA68986813
:104AB0009047034B00221A6008BD00BFF8E7FE1FB5
:104AC000FCE7FE1F38B5124D2B681C68A36893F8ED
:104AD0002620A2B993F8273043B92B680121DA6860
:104AE000986890470B4B00221A6038BD2046FFF7AC
:104AF00097FBA26892F82730002BFBD1EDE7204608
:104B0000FFF762FBA36893F82620002AFBD1E1E7B8
:104B1000F8E7FE1FFCE7FE1F38B5124D2B681C6836
:104B2000A36893F82620A2B993F8273043B92B68DD
:104B30000121DA68986890470B4B00221A6038BD53
:104B40002046FFF76DFBA26892F82730002BFBD1BF
:104B5000EDE72046FFF738FBA36893F82620002AEC
:104B6000FBD1E1E7F8E7FE1FFCE7FE1F38B5124D69
:104B70002B681C68A36893F82620A2B993F8273005
:104B800043B92B680121DA68986890470B4B0022E3
:104B90001A6038BD2046FFF743FBA26892F8273021
:104BA000002BFBD1EDE72046FFF70EFBA36893F83F
:104BB0002620002AFBD1E1E7F8E7FE1FFCE7FE1FF5
:104BC0000020704700207047F0B5154D2F6883B066
:104BD000044637B1A068E36802219847022003B079
:104BE000F0BD2868013028602E68012EF2D194F8BB
:104BF00004C0DFF830E020680B468DE84400314601
:104C00004FEA4C02CEF80040FEF798FE0028E6D0AE
:104C1000A068E368314698472F603046DFE700BF61
:104C2000FCE7FE1FF8E7FE1FF0B5154E376885B0AC
:104C3000044637B1A068E36802219847022005B016
:104C4000F0BD3068013030603568012DF2D194F844
:104C500004C0DFF830E0206802958DE824000B46A0
:104C60004FEA4C022946CEF80040FEF7F5FF002837
:104C7000E5D0A068E3682946984737602846DEE714
:104C8000FCE7FE1FF8E7FE1F70B5154C23680546CC
:104C90003BB1EB6813B1A868022198470226304661
:104CA00070BD2368013323602368012BF1D1B1F576
:104CB000C87F036828BF4FF4C8714FF47A72186830
:104CC00002FB01F1FBF784FFEB68061C18BF01260D
:104CD00013B1A8683146984700232360304670BD61
:104CE000FCE7FE1F014B00225A717047BCD1FE1F2A
:104CF000014B00221A717047BCD1FE1F08B5036832
:104D00000BB1002008BDFDF74DFD20B9FDF73CFDBE
:104D10000028FBD0F5E7012008BD00BF222838B5E8
:104D2000134619D033280ED0112801D0012038BDE8
:104D3000402AFBD8094D0024A81C6A702C7007F08B
:104D400031FC204638BD064C63701D0AA01C25703E
:104D500007F028FC002038BD024CF5E7CCD1FE1F3F
:104D60006C17FF1F2817FF1F222838B514461DD0C7
:104D700033280ED0112803D000231380012038BD22
:104D80000B4A1578537843EA0525402D06D90120B2
:104D900038BD084A1578537843EA05250846911C22
:104DA0002A4607F0FFFB2580002038BD024AF1E7C4
:104DB000CCD1FE1F6C17FF1F2817FF1F08B5037803
:104DC00003B108BD012341600370826004490548B6
:104DD000FEF786FC0348BDE80840FEF749BC00BF6B
:104DE000A086010094D0FE1F00230370704700BF0F
:104DF000A8B1A1B138B50B4C23780BB1094838BD27
:104E000003460A460125084908486360A2602570E8
:104E1000FEF766FC0548FEF72BFC024838BD01484A
:104E2000704700BF00E8FE1FA086010094D0FE1F5F
:104E300010B50848FEF704FD0648FEF72FFC0548AC
:104E4000FEF714FD044A53681BB19068BDE810409A
:104E5000184710BD94D0FE1F00E8FE1F10B5074C88
:104E600041606421826001FB03F12046FEF738FCBB
:104E70002046BDE81040FEF7FBBB00BF94D0FE1FEC
:104E8000704700BF704700BF07F03EBB07F072BB22
:104E900007F088BB07F091BB10B5064C2046FEF723
:104EA000CFFC2046FEF7E2FC034A1368013313608F
:104EB00010BD00BF58D0FE1F10E8FE1F024B18683F
:104EC000421C1A60704700BF14E8FE1F014B1868AF
:104ED000704700BF10E8FE1F034A116813685B1A91
:104EE0008342FBD9704700BF10E8FE1F00230384F4
:104EF000C3698069184700BF012905D0022902D182
:104F000080F823207047704780F82220704700BF48
:104F1000F8B5D9B10D460646242101201746FFF702
:104F2000B3FF044690B100230122C56187610B499C
:104F300084F823203046238484F82230224603F06C
:104F400003FE0546606120B12046F8BD00242046DE
:104F5000F8BD2046FFF79AFF2C46F5E7ED4E000816
:104F600038B580B1038C012B03D140F205352846BA
:104F700038BD0446406903F085FE05462046FFF72C
:104F800085FF284638BD40F20335284638BD00BFAE
:104F900068B170B5044640690D4640B3238C012BBF
:104FA00008D140F20530002384F8223070BD40F271
:104FB00003307047012694F822102684002203F063
:104FC000B7FD606994F82310324603F0B1FD6069C3
:104FD0009DB93321022203F0ABFD2946606900220E
:104FE00003F076FE0028DED000232384DBE70023D5
:104FF00084F8223040F2033070BD1121022203F008
:1050000097FDEAE7D8B12DE9F0411546426982B033
:10501000044662B15DB153B1028C012A12D140F253
:105020000530002384F8223002B0BDE8F08140F260
:105030000330002384F8223002B0BDE8F08140F252
:10504000033070474FF001080E46A0F82080002181
:1050500014220F460193FFF71DFF019B84F80A807D
:10506000268067801A88A280E3603A46606994F8D7
:1050700022102561E780278103F05AFD42466069CE
:1050800094F8231003F054FD6069A17A224603F0DE
:1050900031FE0028CDD02784CBE700BF2DE9F043B7
:1050A00083B012F0BF061446BDF82C7004D040F255
:1050B000033003B0BDE8F08305460028F7D042690D
:1050C00062B10A9A52B1028C012A0AD140F205302B
:1050D000002385F8223003B0BDE8F08340F20330AE
:1050E000F6E7012202848846142231460193FFF735
:1050F000D1FE0A9A019B686995F82210022C08BF1C
:105100001678AE7308BF00224FF00009AA606B80CA
:105110004A46A5F80080AF806C7385F80C90A5F81E
:10512000069003F005FD686995F82310012203F04D
:10513000FFFC214668692A4603F0F0FD0028C7D02D
:10514000A5F82090C4E700BFD0B12DE9F041154685
:10515000426982B004465AB155B1028C012A12D17B
:1051600040F20530002384F8223002B0BDE8F0811F
:1051700040F20330002384F8223002B0BDE8F08111
:1051800040F20330704701270E46078400211422A5
:1051900088460193FFF77EFE019BA380424660692B
:1051A00094F82210277367732680A560A4F8028004
:1051B000A4F8068003F0BCFC3A46606994F823101A
:1051C00003F0B6FC6069617B224603F0A7FD00286E
:1051D000C8D0A4F82080C5E700238385836A406A8D
:1051E000184700BF012905D0022902D180F82F20DD
:1051F0007047704780F82E20704700BFF8B5D9B1CE
:105200000D460646302101201746FFF73DFE0446B5
:1052100090B100230122856247620B4984F82F2058
:105220003046A38584F82E30224603F08DFC0546D7
:10523000206220B12046F8BD00242046F8BD20465B
:10524000FFF724FE2C46F5E7D951000838B580B1A8
:10525000838D012B03D140F20545284638BD044615
:10526000006A03F00FFD05462046FFF70FFE2846B3
:1052700038BD40F20345284638BD00BFB8B12DE91E
:10528000F0411546026A82B004465AB155B1828D8A
:10529000012A0FD140F20540002384F82E3002B0DD
:1052A000BDE8F08140F2034002B0BDE8F08140F279
:1052B000034070474FF001080E46A0F82C800021F3
:1052C00020220F460193FFF7E5FD019B23803A461C
:1052D000206A94F82E106560A7606780277303F03A
:1052E00027FC4246206A94F82F1003F021FC314637
:1052F000206A224603F026FD0028CDD0A785CBE703
:10530000E0B1F0B51646026A83B004467AB1099A54
:105310006AB1089A5AB10A9A4AB1828D012A10D10B
:1053200040F20540002384F82E3003B0F0BD40F277
:105330000340002384F82E3003B0F0BD40F2034058
:1053400070470127878520220D4600210193FFF732
:10535000A1FD019B63700A9B2361206A94F82E10C3
:105360002670002203F0E4FB3A46206A94F82F10DE
:1053700003F0DEFB019B63B9089B1B886380099BDC
:10538000E3600A9B23612946206A224603F022FD3E
:10539000CFE7089B6360F2E7E0B1F0B51646026A1A
:1053A00083B004467AB10D4669B1089A5AB1099A98
:1053B0004AB1828D012A10D140F20540002384F8C1
:1053C0002E3003B0F0BD40F20340002384F82E30AD
:1053D00003B0F0BD40F203407047012787850021EC
:1053E00020220193FFF756FD019BA381089B636078
:1053F000099BA360206A94F82E1025600022A673F2
:1054000003F096FB3A46206A94F82F1003F090FBC5
:10541000206A1121224603F0ADFC0028D5D00023DC
:10542000A385D2E72DE9F04383B0BDF828709DF83D
:105430002C60B0B19046026A044652B10D4641B1AB
:105440003BB10C9A2AB1828D012A0FD140F205405E
:1054500001E040F20340002384F82E3003B0BDE8A1
:10546000F08340F2034003B0BDE8F0834FF0010940
:10547000A0F82C90002120220193FFF70BFD206A59
:1054800094F82E10002203F053FB4A46206A94F849
:105490002F1003F04DFB019BA360256084F804806E
:1054A000A781A6730C9B56B12361206A1121224665
:1054B00003F07CFC0028CED00023A385CBE71B881B
:1054C000A382F2E738B5836904460D460BB1C06983
:1054D000984794F82830A5850422012B84F82920C8
:1054E00003D115B9022384F8283038BD10B590F8DF
:1054F0002E30022B04460BD09BB990F82A30B22BE9
:1055000017D0B32B3BD0B12B26D04FF4817010BDF8
:1055100090F82A30B22B0FD0B32B30D0B12BF4D16E
:105520001DE0012380F8AD311849BDE8104001F0BD
:10553000B9BDA068FFF792FAE068FFF78FFAB323CE
:1055400084F82A30D4F8D0041149224642F6E063A8
:10555000FFF784FC002010BDA068FFF789FAE0681F
:10556000FFF786FAB22384F82A30D4F8D004084929
:1055700022464FF4FA63FFF771FC002010BD20466D
:105580000249BDE8104001F08DBD00BFC5540008C0
:10559000ED54000810B590F828300422012B82B099
:1055A000044680F8292006D0A36993B1E06902B0CF
:1055B000BDE81040184700690191FFF703FBA068A0
:1055C000FFF756FAE068FFF753FAA3690199002B39
:1055D000ECD102B010BD00BF38B590F82930032BD4
:1055E00002D14FF4817038BD03690446B12280684E
:1055F0009C600025012384F82A2084F82F3084F849
:10560000283084F82E50FFF733FAE068FFF730FABD
:10561000B22384F82A30D4F8D004054922464FF446
:10562000FA63FFF71BFC032384F82930284638BDB2
:10563000ED54000870B590F82850022D82B0044651
:1056400003D04FF4817002B070BD90F82950032D43
:10565000F7D0069D23624562009501F077FD002892
:10566000F1D1A38D002BEED1032384F82930EAE792
:1056700038B590F82920032A03D14FF481752846C4
:1056800038BD4FF481720123828580F828300A49A1
:10569000044601F031FDB0F5817F0546EFD1206968
:1056A000FFF790FAA068FFF7E3F9E068FFF7E0F989
:1056B000042384F82930E2E7955500082DE9F04FDE
:1056C00087B00024A3F1030A9B4690F86030009451
:1056D00005469046894612FA8AFA02940194049487
:1056E0000394B9F5837F21D0013B0A2B00F24A8154
:1056F000DFE813F054013601F400DB009B005C008E
:105700004801220053004B000B00019A95F86330CA
:10571000A2F10202B2FA82F25209934200F0D2815F
:105720000923B9F5837F85F86030DDD1012B00F0C6
:105730004081082385F8603095F86630002B40F0F2
:105740003A81012385F86530696F032300244FF007
:10575000010E05229A20C0270A2685F8613085F8B7
:10576000623085F866E085F8602008710F70CE70B1
:105770004C708C70284600F017FE082385F86540B1
:1057800085F8603007B0BDE8F08F009BA34200F0C1
:105790003481062385F86030A3E70323284685F883
:1057A000603007B0BDE8F04F00F038BE95F86230C9
:1057B000296F013303F0030343F0A0049BB284EA92
:1057C0000310020982EA400043EA001382EAC3039D
:1057D00003F00B06D8B280EA0610020982EA400004
:1057E00046EA001082EA132282EAC00303F00F06A1
:1057F000D8B280EA0610020982EA400046EA0010A8
:1058000082EA132383EAC003022000221E0A85F8DD
:10581000600028460C700B71CE704A708A700522A9
:1058200007B0BDE8F04F00F0BFBDFFF74FFBEB6CDA
:10583000D04AC01A904200F2CE8095F86430032B13
:1058400000F07781B5F86C20296F0592013385F857
:1058500064301046022395F8622085F860300A70A3
:10586000002800F0368195F86630002B00F0A18109
:1058700095F86130013303F0030385F861300A784D
:10588000059E06F1030C42EA83020020330A1FFA48
:105890008CFC0A7085F866008E704B70BCF1000FAE
:1058A00040F01F816046664635E1B9F5817F7CD0C6
:1058B00095F86330012285F86020002B00F08F807E
:1058C000B5F86E306A6FEC6F053B9BB20332284629
:1058D0000421A44607B0BDE8F04F6047B9F5817FC9
:1058E00063D0BBF1040F7FF654AF08EB0B0298F8BE
:1058F000003012F8024C12F8010C98F8011098F8D8
:10590000022040EA0420C3F3411400900194D80916
:1059100003F00304C3F38103039342EA01230494D5
:10592000029308F1FF31002411F8013F63409BB25C
:1059300003F00F06DBB283EA06131A0982EA430377
:1059400082EA142446EA0313A4B2514584EAC3044C
:10595000EAD101280CBF0B230A2385F86030C0E68A
:10596000B9F5817F4FF0050320D0FFF7AFFA03238D
:10597000A86785F86030284600F050FD00287FF4C5
:1059800008AFFFE60121002285F86010EC6F134696
:105990002846A44607B0BDE8F04F6047B9F1000FB4
:1059A00014BF012102210022F0E7052385F86030B1
:1059B0009AE61946F7E795F86520002A7FF4C4AE09
:1059C000EC6F012128461346A44685F8601007B005
:1059D000BDE8F04F6047082385F8603081E6B5F8F0
:1059E0006E306A6FEC6F053B9BB20332284606218E
:1059F000A44607B0BDE8F04F6047029B002B3FF480
:105A0000C8AE05339B457FF4C4AE019B023B012B1E
:105A10007FF6BFAE95F8623003995A1C02F003027C
:105A2000914240F0D88095F86130049A934240F05A
:105A3000BB80019B012B00F0B2809DF80C3085F8F3
:105A4000623041465A46686F06F0ACFD95F8623008
:105A5000296FA5F86EB043F0800403F00F0384EAC9
:105A60000310020982EA400043EA001382EAC303FA
:105A700003F00F06D8B280EA0610020982EA40005D
:105A800046EA001082EA132282EAC00303F00F06FE
:105A9000D8B280EA0610020982EA400046EA001005
:105AA00082EA132383EAC003002204201E0A85F839
:105AB000600085F8642028460C704A708A700B716B
:105AC000CE70ACE6009AA24256D0052385F860302D
:105AD00007E662F07F020A70059A4A708A704FF0FA
